:0200000400FFFB
:03000000020200F9
:03000B000204CD1F
:0300E3000204D83C
:1002000075E90075EA0043BA8075933075943075CE
:10021000913275923275953C75963C75B15075B2B8
:100220005075B33C75B43C75C90C75CA0C75CBFFE1
:1002300075CCFF75E10075E2007581D075D000C204
:100240008C438E805389FB5389FC758CA2758A4040
:10025000D2A9D28C120447D2AF7E2403457A25243A
:100260007E2467897A2526753811753922753A33C7
:10027000753B44753C55753D66753E77753F8830D6
:1002800000FDC2007E35220B347A3522BE3403E8ED
:1002900040397E3400007A35227E3400007A3522DF
:1002A00074021202D620E0061203A00202CB7400F0
:1002B0007E34FEBB7E24007E7A1BB07E34FEBC7E84
:1002C00024007E7E1BB054FB7A1BB03001B1C2010A
:1002D00012030402027F7E34FEBB7E24007E7A1B62
:1002E000B07E34FEBC7E24007E7E1BB0227E34FEB7
:1002F000BB7E24007E7A1BB07E34FEBC7E24007E52
:100300007A1BA022740C1202D6F540740D1202D68C
:10031000F541740E1202D6F542740F1202D6F5435F
:10032000740C1202D6F544740D1202D6F538740E10
:100330001202D6F539740F1202D6F53A740C120275
:10034000D6F53B740D1202D6F53C740E1202D6F5AA
:100350003D740F1202D6F53E740C1202D6F53F74AE
:100360000D1202D6740E1202D6740F1202D67E013E
:10037000417E11427E21437E31441E141E045003EF
:100380004E20801E141E0450034E20801E141E0496
:1003900050034E20805E041FFF7A05247A15262222
:1003A000740875F0881202ED7E05247E15263E0441
:1003B0003E145002A5093E043E145002A5093E0415
:1003C0003E145002A50974097A01F01202ED740A74
:1003D0007A11F01202ED740B7A21F01202ED74081A
:1003E0007A31F01202ED74098538F01202ED740AC8
:1003F0008539F01202ED740B853AF01202ED7408A3
:10040000853BF01202ED7409853CF01202ED740A8E
:10041000853DF01202ED740B853EF01202ED74087A
:10042000853FF01202ED740975F0001202ED740AB6
:1004300075F0001202ED740B75F0001202ED7401FC
:1004400075F0041202ED224397025397F775A2103C
:10045000740075F0041202ED74002403F5F07406C4
:100460001202ED7401C424022400F5F07407120294
:10047000ED741075F0001202ED741175F0001202A7
:10048000ED741275F0001202ED741375F000120293
:10049000ED741475F0FF1202ED741575F0FF120281
:1004A000ED741675F0FF1202ED741775F0FF12026D
:1004B000ED740475F0FF1202ED740375F0FF120283
:1004C000ED740075F0001202ED75F10222C0D0C08B
:1004D000E0D200D0E0D0D032C0D0C0E0CA48CA5884
:1004E000CA68CA78C0F07E34FEBB7E24007E7E1BC4
:1004F000A074037A1BB07E34FEBC7E24007E7E1B7B
:10050000B07A1BB020E02C20E12B20E22A20E32946
:1005100020E42A20E52920E6287E34FEBB7E240044
:100520007E7A1BA0D0F0DA78DA68DA58DA48D0E0C0
:10053000D0D03280D280D380D4D20180D380D480F6
:03054000D580D68D
:00000001FF
