:1000000002109302132E02132E22220200C77A3707
:10001000002F7E3400307E2400007E1B307E3400B2
:10002000317E2400007A1B307E34002F7E240000B5
:100030007E1B307E3400327E2400007A1B307E37F7
:10004000003122020046CA59CA39C0D1C083C082D9
:10005000A9319A05A9C19AC204A9309A20A9C09AC7
:100060007EA19B7E7300417CB7047AB300410A37BE
:100070002E3402007A71827A61837AEBA0D082D02A
:1000800083D0D1DA39DA593202132E020FCFCA3BAC
:100090007F307AB3002F74161212E77AB300307AE9
:1000A000B30031800C7EB3002F1212E77A3BB00B05
:1000B000747EA300307CBA147AB300304CAA78E581
:0A00C0007EB30031DA3B22D2073292
:1000CB000209E5CA797EB30011B40402800302026F
:1000DB00962000577E730042BE73003E684DA9C741
:1000EB00AFD200740E7E70041212FC6CFF8027746A
:1000FB00247EA3003E7C7A0B707A73003E0A3A2E64
:10010B003403007A71827A61837EEB701212FC0BDE
:10011B00F0BEF040680A7E730042BE73003E78CF9B
:10012B0074117E70011212FCA9D7AF2001577E7398
:10013B000041BE73003D684DA9C7AFD201740E7E5E
:10014B0070051212FC6CFF802774257EA3003D7C8A
:10015B007A0B707A73003D0A3A2E3402007A718260
:10016B007A61837EEB701212FC0BF0BEF040680AD2
:10017B007E730041BE73003D78CF74117E70011207
:10018B0012FCA9D7AF2005597E730040BE73003C0B
:10019B00684F7EA3003C7CBA047AB3003C0A3A2E2B
:1001AB003401007A71827A61837EEBE0D2057EB3F3
:1001BB00002614680F1468161468201468040BB218
:1001CB00781C80127AE1E020D00C800F80087AE155
:1001DB00E030D0028005A9C3AC8003A9D3AC7AE18F
:1001EB00AD2004597E73003FBE73003B684F7EA366
:1001FB00003B7CBA047AB3003B0A3A2E3400007AF7
:10020B0071827A61837EEBE0D2047EB3002D146899
:10021B000F1468161468201468040BB2781C801233
:10022B007AE1E020D00C800F80087AE1E030D00238
:10023B008005A9C39A8003A9D39A7AE19B30022443
:10024B00A9C7AF7E7300409E73003CBE70C05011B7
:10025B00C202740E7E70041212FC74146C771212AC
:10026B00FCA9D7AF300324A9C7AF7E73003F9E73A1
:10027B00003BBE70C05011C203740E7E700512128B
:10028B00FC74146C771212FCA9D7AFDA7922CA3B33
:10029B007EB30010700A7E3F00217E1F0028800B6A
:1002AB00B4020C7E3F00287E1F00217A1F002F7F97
:1002BB0013120D3A7F317E1F002F120D3A7A1F0059
:1002CB002F7F139E184B0068489E18258068429E0E
:1002DB00182580683C9E184B0068369E18E1006814
:1002EB00301B249E18C20068289E2400039E18848D
:1002FB0000681E9E2400079E18080068149E2400A8
:10030B00089E18D360680D9E24FFE99E1854E07870
:10031B0007E4800674028002740112067D1211C676
:10032B007E5F001B7F157F03120EA57F010B0D74E3
:10033B00021E141E0450034E20801478F46DDD7ED3
:10034B00C400017F169F107DF37E0F002F7F1512C7
:10035B000EA57F010B0D74021E141E0450034E20BC
:10036B00801478F47F169F107EA300104CAA781887
:10037B007D2F7CB5F5D50A247CB5F5D47CB7F5D7A4
:10038B000A367CB7F5D68017BEA00278127D2F7C7B
:10039B00B5F5D70A54F5D67CB7F5D50A56F5D4DAA8
:1003AB003B22CAF87EF300087CBF5480B480167ED3
:1003BB00B3000B70307EB3000A702A7E37000EBE7E
:1003CB0034000268030204B47CBF540F14681B147E
:1003DB00683C0BB168030204B47EB3000D70067E5B
:1003EB00B3000C601E0204B480197EB30011B40478
:1003FB000F7EB3000D60030204B47EB3000C6003E8
:10040B000204B47E3406717E2400FF0204A47EB382
:10041B000011B404067EB3000D60030204B47E73B6
:10042B00000C7CA75EA00F1B7268431B70683F2EED
:10043B007082680D1B7068091B7068052E7003783D
:10044B00687E2400017CBA60053E241478FB7E7321
:10045B0000196C665C754D33680A7E3406737E2416
:10046B0000FF80357E3406717E2400FF802B7E24B6
:10047B0000017CBA60053E241478FB7E73001A6C75
:10048B00665C754D33680A7E3406737E2400FF80EC
:10049B00087E3406717E2400FF7A1F00157E34001F
:1004AB00027A3700138007800012132E8003121379
:1004BB000FDAF8227EB30011BEB00268207EB300C3
:1004CB0008701A7EB3000B70147EB3000D700E7E95
:1004DB00B3000C70087E37000E4D33680302132EE9
:1004EB007EB3000AB40102800302059D74047AB343
:1004FB000011E47AB300197AB3001A740E7E7002FD
:10050B001212FC74127E70201212FC74107E700892
:10051B001212FC740E7E70031212FC74127E702089
:10052B001212FC74107E70081212FC740E7E700492
:10053B001212FC74127E70201212FC74107E700862
:10054B001212FC740E7E70051212FC74127E702057
:10055B001212FC74107E70081212FC740E7E700462
:10056B001212FC74126C771212FC74137E70081248
:10057B0012FC740E7E70051212FC74126C77121240
:10058B00FC74137E70081212FC740E6C771212FC42
:10059B00801074037AB3001174FF7AB300197AB325
:1005AB00001A02133C1E0353005400430020005555
:1005BB000053004200200053006500720069006187
:1005CB00006C000403090412010002EF020140BF9A
:1005DB00340AFF00010102000109028D0004010031
:1005EB008032080B00020202010009040000010224
:1005FB00020100052400100105240100010424025E
:10060B00020524060001070582034000FF090401CF
:10061B0000020A00000007058402400000070504E1
:10062B0002400000080B0202020201000904020052
:10063B000102020100052400100105240100010440
:10064B002402020524060001070583034000FF096D
:10065B00040300020A0000000705850240000007A2
:10066B000505024000000000010008035300540080
:10067B0043007C7B1B71682D1B70684E0B71787B64
:10068B007E3436007E24016E7E0F001BBF01780383
:10069B0002074074047E14FE017E04007E7A0BB0C8
:1006AB0090FDEC80767E34C3807E2401C97E0F00E2
:1006BB001BBF01780302074074047E14FE017E0405
:1006CB00007E7A0BB090FDEE80517E345A007E2472
:1006DB0002627E0F001BBF01685B74047E14FE0177
:1006EB007E04007E7A0BB090FDF2E0F59F90FDF852
:1006FB00E0F5A6E59D54FC4403802F7E3480007EFC
:10070B002401517E0F001BBF01682A74047E14FE66
:10071B00017E04007E7A0BB090FDEBE0F59F90FD1F
:10072B00F7E0F5A6E59D54FC4402F59D74017A0BA8
:10073B00B07A1F001B227EB30011B4042A7EB300D3
:10074B0008B402237EB3000D60030207ED7EB300F5
:10075B000B60030207ED7EB3000A60030207ED7E18
:10076B0037000E4D33680280797E63000C7C765E19
:10077B00700F1B62683C1B6068382E6082680D1B13
:10078B006068091B6068052E600378567E240001A3
:10079B007CB760053E241478FB7C656E60FF5E635E
:1007AB0000197A630019740E1212FC74117E7040DA
:1007BB0080247E2400017CB760053E241478FB7CEA
:1007CB00656E60FF5E63001A7A63001A740E121274
:1007DB00FC74147E70801212FC740E6C771212FC77
:1007EB00800302132E02133C7EB30011B4042A7E45
:1007FB00B30008B402237EB3000D60030208997E98
:10080B00B3000B60030208997EB3000A6003020871
:10081B00997E37000E4D33680280737E63000C7C2B
:10082B00765E700F1B6268391B6068352E608268BC
:10083B000D1B6068091B6068052E600378507E24D1
:10084B0000017CB760053E241478FB7C654E630089
:10085B00197A630019740E1212FC74117E701080D9
:10086B00217E2400017CB760053E241478FB7C6557
:10087B004E63001A7A63001A740E1212FC74147E03
:10088B0070201212FC740E6C771212FC8003021390
:10089B002E02133C759A507E14C2007E0400017E1A
:1008AB001F001B120EA57F010B0D74021E141E04DC
:1008BB0050034E20801478F46D337E2400019F107A
:1008CB007CB7F5D77A61D6A9D28EA9D48EA9D0B52B
:1008DB00A9D0AF75AC50F5D57A61D453DDF043DDBB
:1008EB000AA9D0DFA9D3AF7E3401007E2400C27ADF
:1008FB001F0021E47AB300257AB3002674087AB37B
:10090B0000277A1F0028E47AB3002C7AB3002D74E9
:10091B00087AB3002EC205C204E47AB3003C7AB362
:10092B00003B7AB300407AB3003F7AB3003E7AB310
:10093B00003D7AB300427AB30041227EB3000854E3
:10094B0080BEB08068030209D17EB3000B1BB16877
:10095B00191468280BB1786E7E3405D27E2400FF03
:10096B007A1F00157E34001280547E3405E47E24F9
:10097B0000FF7A1F00157E34008D80427EB3000A83
:10098B001468191468280BB1783C7E3405CE7E248C
:10099B0000FF7A1F00157E34000480227E3406751A
:1009AB007E2400FF7A1F00157E34000880107E34F1
:1009BB0005B07E2400FF7A1F00157E34001E7A37A7
:1009CB0000138005800002132E7E37000EBE370009
:1009DB001350047A37001302130FCA7BCA6BCA5B1E
:1009EB00CA4BCA3BCA2BCA1BCA0BC0D1C0D0C083CF
:1009FB00C0827EF1FC74061212E77CEB74021212B9
:100A0B00E77CCB74041212E77CDB7CBE30E1031273
:100A1B00000A7CBE30E203120B0B7CBC30E00312ED
:100A2B000A817CBC30E2031211F27CBC30E303126E
:100A3B00121D7CBC30E4031211407CBC30E5031268
:100A4B00116D7CBD30E403120BF77CBD30E5031256
:100A5B000C657CBE30E0031200097AF1FCD082D029
:100A6B0083D0D0D0D1DA0BDA1BDA2BDA3BDA4BDAC4
:100A7B005BDA6BDA7B32CAF8740E6C771212FC7489
:100A8B00111212E77CFB30E20F74117C7F5E70FB5E
:100A9B001212FCE47AB300127CBF30E40A74117CAE
:100AAB007F4E70801212FC7EB3001224FD68461438
:100ABB0068480BB278477CBF30E04274207E080058
:100ACB000812008E7E37000E12000E7A37000E7E53
:100ADB00B30008546024E0680D24E0680E244078CD
:100AEB000F120D9B80171212B68012120088800D08
:100AFB0012132E8008120CD38003120DF7DAF82292
:100B0B00E46C771212FC74027AB30011E47AB3002E
:100B1B0012740E7E70021212FC74117E7048121247
:100B2B00FC740E7E70031212FC74117E704812124C
:100B3B00FC740E7E70041212FC74117E704812123B
:100B4B00FC740E7E70051212FC74117E704812122A
:100B5B00FC740E7E70041212FC74147E70901212D0
:100B6B00FC740E7E70051212FC74147E70901212BF
:100B7B00FC740E6C770212FC53B2FC43B10374800D
:100B8B007E34FE077E24007E7A1BB07E34FE077E09
:100B9B0024007E7E1BB030E0F275DC0075F490E42F
:100BAB006C771212FC74017E70091212FC74077EB2
:100BBB00703F1212FC74097E703F1212FC740B7E94
:100BCB0070071212FC74017E70011212FC74027A0F
:100BDB00B30011E47AB300127AB300197AB3001A96
:100BEB00C200C201C202C203A9D7AF22CAF8740E57
:100BFB007E70041212FC74141212E77CFB30E608B0
:100C0B0074147E70801212FC7CBF30E04A74161292
:100C1B0012E77CFB802174241212E77CAB7E7300FD
:100C2B00407CB7047AB300400A372E3401007A7146
:100C3B00827A61837AEBA07CAF1BF04CAA78D77ECB
:100C4B007300409E73003CBE70C04004D20280070C
:100C5B0074146C771212FCDAF822CAF8740E7E70D8
:100C6B00051212FC74141212E77CFB30E6087414A4
:100C7B007E70801212FC7CBF30E04A74161212E7B1
:100C8B007CFB802174251212E77CAB7E73003F7CCA
:100C9B00B7047AB3003F0A372E3400007A71827A98
:100CAB0061837AEBA07CAF1BF04CAA78D77E7300E4
:100CBB003F9E73003BBE70C04004D2038007741488
:100CCB006C771212FCDAF822CAF8740E6C771212D7
:100CDB00FC74111212E720E1537E370013BE34006F
:100CEB004028057EF04080027CF774207E0F0015B3
:100CFB007C7F12119A0A2F7E3700139D327A3700B0
:100D0B00130A157E1F00152D317A1F00157E370033
:100D1B00134D33780F74117E700A1212FCE47AB300
:100D2B000012800874117E70021212FCDAF8227A1B
:100D3B001F00337E3400367E2400007E1B307E3451
:100D4B0000377E2400007A1B307E3400357E240071
:100D5B00007E1B307E3400387E2400007A1B307EF0
:100D6B003400347E2400007E1B307E3400397E2418
:100D7B0000007A1B307E3400337E2400007E1B3053
:100D8B007E34003A7E2400007A1B307E1F0037220F
:100D9B007EB30009BEB00D50507EA003A4900DACE5
:100DAB0073020DD3020DD6020DF4020DD9020DF410
:100DBB00020DDC020DDF020DE2020DE5020DE80271
:100DCB000DEB020DEE020DF10203AD02074102071E
:100DDB00F3020EF6020946020003020E4F0204BF95
:100DEB000210D202127302000602132E740E6C77DD
:100DFB001212FC74111212E730E04874207E0F00BF
:100E0B001512008E0A1B7E2700139D217A270013D3
:100E1B007E1F00152D317A1F00157E3700134D33C1
:100E2B00780F74117E70481212FCE47AB3001280B2
:100E3B000874117E70401212FC7EB30009B42003BB
:100E4B00021248227EB30008B480227EB3000B70DE
:100E5B001C7EB3000A70167EB3000D70107EB300BB
:100E6B000C700A7E37000EBE340001680302132E8D
:100E7B007EB30011B4040A7E3406737E2400FF8017
:100E8B00087E3406717E2400FF7A1F00157E340025
:100E9B00017A37001302130F6D0074104D00780B9D
:100EAB004D2278278D317D126D22227D437D326D4F
:100EBB00222F112D445002A50FBF1040049F100B81
:100ECB00901478ED7F016D227D34227D417D138D51
:100EDB00247D022F004004BD0440049D040B141418
:100EEB0078F17D237D317D106D0022CAF87EB30031
:100EFB000870237EB3000D701D7EB3000C70177E3F
:100F0B00B3000B70117EF3000ABEF08050087E37E1
:100F1B00000E4D33680512132E8017E47C7F1212DE
:100F2B00FC4CFF68047403800274027AB300111244
:100F3B00133CDAF8227EA300104CAA781E7EB30075
:100F4B002614680F14680C14680914680A8000755D
:100F5B00AC502275ACD82275ACD022BEA002781D45
:100F6B007EB3002D14680F14680C14680914680AFA
:100F7B008000759A5022759AD822759AD02275E9FD
:100F8B0000A9D7BA75EA00759300759400759100A6
:100F9B0075920075950075960075B10075B2007568
:100FAB00B30075B40075C90075CA0075CB0075CC5C
:100FBB000075E10075E200A9D1BAA9D0BAD2B2C2CC
:100FCB00C0C2EF22CA59CA39C0D1C083C082A9316D
:100FDB00AC05A9C1ACC205A930AC20A9C0AC7EA19F
:100FEB00AD7E7300427CB7047AB300420A372E34CD
:100FFB0003007A71827A61837AEBA0D082D083D09E
:10100B00D1DA39DA59327EB30011B404097EB30058
:10101B0008BEB0A1680280217EB3000C7AB3001029
:10102B0070067E180021800B7EB30010B4020A7E7E
:10103B001800287A1F0015800302132E7E37000E2E
:10104B007A37001302130F7EB30011B404097EB379
:10105B000008BEB021680280217EB3000C7AB30079
:10106B001070067E180021800B7EB30010B4020AAC
:10107B007E1800287A1F0015800302132E7E37007E
:10108B000E7A3700130213207584017E44041FE48B
:10109B007A49B01B4478F97EF800427E0400FF7E4B
:1010AB001413490B0A405D44681A692000020B0EA9
:1010BB000B44800A7E0BB07A29B00B240B0C1B441B
:1010CB0078F280DF02129B7EB30011B4041D7EB355
:1010DB000008B481167EB3000B70107EB3000D7048
:1010EB000A7E37000EBE340001680302132E7E34D5
:1010FB0006717E2400FF7A1F00157E3400017A37BB
:10110B00001302130F20B21D2006297EB3001F040B
:10111B007AB3001F7E73001FBE70324017D206D207
:10112B00C043C90322E47AB3001F300607C2C05381
:10113B00C9FCC20622CAF8740E7E70041212FC742B
:10114B00111212E77CFB30E50874117E704012120D
:10115B00FC7CBF30E20774116C771212FCC200DA10
:10116B00F822CAF8740E7E70051212FC741112125A
:10117B00E77CFB30E50874117E70401212FC7CBFDB
:10118B0030E20774116C771212FCC201DAF822CA32
:10119B003B7A7300307F307AB3002F800C7EB30024
:1011AB002F7E3B700B741212FC7EA300307CBA14A2
:1011BB007AB300304CAA78E5DA3B227E14000C7E21
:1011CB001F001B120EA37E1403E8120EA37F016DEA
:1011DB00337E2400019F105389F07CB7F58A7CB6CF
:1011EB00F58CD28CD2A922CAF8740E7E7002121220
:1011FB00FC74111212E77CFB30E50874117E704011
:10120B001212FC7CBF30E20774116C771212FCDAFD
:10121B00F822CAF8740E7E70031212FC74111212AB
:10122B00E77CFB30E50874117E70401212FC7CBF2A
:10123B0030E20774116C771212FCDAF8227EA300ED
:10124B00104CAA780DE47AB3002574087AB3002702
:10125B008010BEA002780BE47AB3002C74087AB32A
:10126B00002E120F400202997EB30011B4041B7EB4
:10127B00B30008B401147EB3000B700E7EB3000DE7
:10128B0070087E37000E4D33680302132E02133C99
:10129B00120F8912089F1211C6120B83D2AF1200C4
:1012AB00CE3007FAC20712111080F37EB300092467
:1012BB00DF680A14680A0BB1780902105202101188
:1012CB000212D102132E7EB30011B404097EB300B7
:1012DB0008BEB021680302132E02133C7CABE5FC65
:1012EB0020E7FB7CBA4480F5FCE5FC20E7FBE5EC52
:1012FB00227CA77C7BE5FC20E7FB7CB7547FF5FCCD
:10130B007AA1EC2274037AB3001274117E7040122E
:10131B0012FC020CD374047AB3001274117E704069
:10132B000212FC74057AB3001274117E7060021203
:10133B00FCE47AB3001274117E70480212FC0004B4
:08134B00001B016E36000000DA
:00000001FF
