:1000000002119302121902121922220211447A37A4
:1000100000397E34003A7E2400007E1B307E34009E
:100020003B7E2400007A1B307E3400397E240000A1
:100030007E1B307E34003C7E2400007A1B307E37ED
:10004000003B22020EAB75E900A9D7BA75EA00752C
:1000500093007594007591007592007595007596E2
:100060000075B10075B20075B30075B40075C900B4
:1000700075CA0075CB0075CC0075E10075E200A96A
:10008000D1BAA9D0BAC2EF22021219020EEDCA3BB0
:100090007F307AB3003974161211BE7AB3003A7AFF
:1000A000B3003B800C7EB300391211BE7A3BB00B1B
:1000B000747EA3003A7CBA147AB3003A4CAA78E56D
:0700C0007EB3003BDA3B2296
:1000CB00020777CA797EB30011B4040280030202DF
:1000DB00A72000577E730038BE730034684DA9C744
:1000EB00AFD200740E7E70041211E76CFF80277480
:1000FB00247EA300347C7A0B707A7300340A3A2E78
:10010B003403007A71827A61837EEB701211E70BF4
:10011B00F0BEF040680A7E730038BE73003478CFAF
:10012B0074117E70011211E7A9D7AF2001577E73AE
:10013B000037BE730033684DA9C7AFD201740E7E72
:10014B0070051211E76CFF802774257EA300337CAA
:10015B007A0B707A7300330A3A2E3402007A71826A
:10016B007A61837EEB701211E70BF0BEF040680AE8
:10017B007E730037BE73003378CF74117E7001121B
:10018B0011E7A9D7AF20076A7E730036BE73003222
:10019B0068607EA300327CBA047AB300320A3A2E2E
:1001AB003401007A71827A61837EEBE0D2077EB3F1
:1001BB00002714680F1468161468201468040BB217
:1001CB00781C80127AE1E020D00C800F80087AE155
:1001DB00E030D0028005A9C3AC8003A9D3AC7AE18F
:1001EB00ADBEE07F78077EB3001C048001E47AB3D8
:1001FB00001C2006597E730035BE730031684F7E9C
:10020B00A300317CBA047AB300310A3A2E340000D1
:10021B007A71827A61837EEBE0D2067EB3002E1474
:10022B00680F1468161468201468040BB2781C80CD
:10023B00127AE1E020D00C800F80087AE1E030D018
:10024B00028005A9C39A8003A9D39A7AE19B300255
:10025B0024A9C7AF7E7300369E730032BE70C050A8
:10026B0011C202740E7E70041211E774146C7712B3
:10027B0011E7A9D7AF300324A9C7AF7E7300359E12
:10028B00730031BE70C05011C203740E7E70051224
:10029B0011E774146C771211E7A9D7AFDA7922CA78
:1002AB00F87EF300087CBF5480B480167EB3000B3D
:1002BB0070307EB3000A702A7E37000EBE34000207
:1002CB0068030203B17CBF540F14681B14683C0B0A
:1002DB00B168030203B17EB3000D70067EB3000C50
:1002EB00601E0203B180197EB30011B4040F7EB3FC
:1002FB00000D60030203B17EB3000C60030203B177
:10030B007E34056E7E2400FF0203A17EB30011B480
:10031B0004067EB3000D60030203B17E73000C7CF8
:10032B00A75EA00F1B7268431B70683F2E7082681C
:10033B000D1B7068091B7068052E700378687E248E
:10034B0000017CBA60053E241478FB7E7300196CA7
:10035B00665C754D33680A7E3405707E2400FF8021
:10036B00357E34056E7E2400FF802B7E2400017CBD
:10037B00BA60053E241478FB7E73001A6C665C75BC
:10038B004D33680A7E3405707E2400FF80087E346E
:10039B00056E7E2400FF7A1F00157E3400027A372B
:1003AB0000138007800012121980031211FADAF879
:1003BB00227EB30011BEB00268207EB30008701A13
:1003CB007EB3000B70147EB3000D700E7EB3000C69
:1003DB0070087E37000E4D3368030212197EB3008E
:1003EB000AB40102800302049A74047AB30011E484
:1003FB007AB300197AB3001A740E7E70021211E7E9
:10040B0074127E70201211E774107E70081211E7BF
:10041B00740E7E70031211E774127E70201211E7B6
:10042B0074107E70081211E7740E7E70041211E7BF
:10043B0074127E70201211E774107E70081211E78F
:10044B00740E7E70051211E774127E70201211E784
:10045B0074107E70081211E7740E7E70041211E78F
:10046B0074126C771211E774137E70081211E77413
:10047B000E7E70051211E774126C771211E774136C
:10048B007E70081211E7740E6C771211E7801074EE
:10049B00037AB3001174FF7AB300197AB3001A020E
:1004AB0012271E0353005400430020005500530035
:1004BB0042002000530065007200690061006C006F
:1004CB000403090412010002EF020140BF340AFFCA
:1004DB0000010102000109028D00040100803208B5
:1004EB000B000202020100090400000102020100DC
:1004FB000524001001052401000104240202052437
:10050B00060001070582034000FF09040100020AEF
:10051B0000000007058402400000070504024000AC
:10052B0000080B0202020201000904020001020290
:10053B00010005240010010524010001042402021E
:10054B000524060001070583034000FF090403008F
:10055B00020A00000007058502400000070505029E
:10056B004000000000010008035300540043007ECC
:10057B00B30011B4042A7EB30008B402237EB30087
:10058B000D60030206267EB3000B60030206267E77
:10059B00B3000A60030206267E37000E4D33680255
:1005AB0080797E63000C7C765E700F1B62683C1B4F
:1005BB006068382E6082680D1B6068091B606805D7
:1005CB002E600378567E2400017CB760053E241410
:1005DB0078FB7C656E60FF5E6300197A63001974AB
:1005EB000E1211E774117E704080247E2400017C72
:1005FB00B760053E241478FB7C656E60FF5E63007C
:10060B001A7A63001A740E1211E774147E7080123A
:10061B0011E7740E6C771211E780030212190212A4
:10062B00277EB30011B4042A7EB30008B402237EE4
:10063B00B3000D60030206D27EB3000B600302060B
:10064B00D27EB3000A60030206D27E37000E4D3312
:10065B00680280737E63000C7C765E700F1B626891
:10066B00391B6068352E6082680D1B6068091B6042
:10067B0068052E600378507E2400017CB760053E30
:10068B00241478FB7C654E6300197A630019740E91
:10069B001211E774117E701080217E2400017CB74B
:1006AB0060053E241478FB7C654E63001A7A630068
:1006BB001A740E1211E774147E70201211E7740E67
:1006CB006C771211E780030212190212277EB30016
:1006DB00085480BEB08068030207637EB3000B1B17
:1006EB00B168191468280BB1786E7E3404CF7E2460
:1006FB0000FF7A1F00157E34001280547E3404E113
:10070B007E2400FF7A1F00157E34008D80427EB35D
:10071B00000A1468191468280BB1783C7E3404CB9A
:10072B007E2400FF7A1F00157E34000480227E3465
:10073B0005727E2400FF7A1F00157E34000880109E
:10074B007E3404AD7E2400FF7A1F00157E34001E1C
:10075B007A370013800580000212197E37000EBE17
:10076B0037001350047A3700130211FACA7BCA6B95
:10077B00CA5BCA4BCA3BCA2BCA1BCA0BC0D1C0D05F
:10078B00C083C0827EF1FC74061211BE7CEB740236
:10079B001211BE7CCB74041211BE7CDB7CBE30E12B
:1007AB000312000A7CBE30E20312091F7CBC30E04E
:1007BB00031208137CBC30E2031210A57CBC30E39F
:1007CB00031210D07CBC30E40312101F7CBC30E54C
:1007DB000312104C7CBD30E403120A0B7CBD30E5D8
:1007EB0003120A797CBE30E0031200097AF1FCD0C7
:1007FB0082D083D0D0D0D1DA0BDA1BDA2BDA3BDA0A
:10080B004BDA5BDA6BDA7B32CAF8740E6C77121147
:10081B00E774111211BE7CFB30E20F74117C7F5E0A
:10082B0070FB1211E7E47AB300127CBF30E40A7458
:10083B00117C7F4E70801211E77EB3001224FD688D
:10084B00461468480BB278477CBF30E04274207E78
:10085B0008000812008E7E37000E12000E7A370049
:10086B000E7EB30008546024E0680D24E0680E246B
:10087B0040780F120C7B80171211628012120088C5
:10088B00800D1212198008120B4E8003120CD7DA4E
:10089B00F822759A5075D7CC75D6FFA9D28EA9D4EC
:1008AB008EA9D0B5A9D0AF75AC5075D5CC75D4FF8A
:1008BB0053DDF043DD0AA9D0DFA9D3AF7E340100AD
:1008CB007E2400C27A1F0022E47AB300267AB3009A
:1008DB002774087AB300287A1F0029E47AB3002D15
:1008EB007AB3002E74087AB3002FC207C206E47ADB
:1008FB00B300327AB300317AB300367AB300357A6B
:10090B00B300347AB300337AB300387AB300377A52
:10091B00B3003022E46C771211E774027AB3001142
:10092B00E47AB30012740E7E70021211E774117E1A
:10093B0070481211E7740E7E70031211E774117E6A
:10094B0070481211E7740E7E70041211E774117E59
:10095B0070481211E7740E7E70051211E774117E48
:10096B0070481211E7740E7E70041211E774147E36
:10097B0070901211E7740E7E70051211E774147EDD
:10098B0070901211E7740E6C770211E753B2FC43AF
:10099B00B10374807E34FE077E24007E7A1BB07E0A
:1009AB0034FE077E24007E7E1BB030E0F275DC0047
:1009BB0075F490E46C771211E774017E70091211D3
:1009CB00E774077E703F1211E774097E703F1211B6
:1009DB00E7740B7E70071211E774017E7001121120
:1009EB00E774027AB30011E47AB300127AB30019F8
:1009FB007AB3001AC200C201C202C203A9D7AF2246
:100A0B00CAF8740E7E70041211E774141211BE7CB6
:100A1B00FB30E60874147E70801211E77CBF30E067
:100A2B004A74161211BE7CFB802174241211BE7CF9
:100A3B00AB7E7300367CB7047AB300360A372E349C
:100A4B0001007A71827A61837AEBA07CAF1BF04C48
:100A5B00AA78D77E7300369E730032BE70C04004F6
:100A6B00D202800774146C771211E7DAF822CAF8F5
:100A7B00740E7E70051211E774141211BE7CFB30DC
:100A8B00E60874147E70801211E77CBF30E04A7464
:100A9B00161211BE7CFB802174251211BE7CAB7E1D
:100AAB007300357CB7047AB300350A372E34000057
:100ABB007A71827A61837AEBA07CAF1BF04CAA78B7
:100ACB00D77E7300359E730031BE70C04004D203D5
:100ADB00800774146C771211E7DAF8227EB3001BCF
:100AEB0014681F1468468000200402C2C053C9FC5E
:100AFB0030054FC205E47AB3001E7AB3001C7401B3
:100B0B0080347EA3001EBEA0C84003E480287CBABC
:100B1B00047AB3001E7E73001CBE70104024D2C03A
:100B2B0043C903E47AB3001E7402800A7EA3001E3D
:100B3B00BEA0324006E47AB3001B227CBA047AB31F
:100B4B00001E22CAF8740E6C771211E77411121181
:100B5B00BE20E1537E370013BE34004028057EF0E3
:100B6B004080027CF774207E0F00157C7F12107979
:100B7B000A2F7E3700139D327A3700130A157E1F1A
:100B8B0000152D317A1F00157E3700134D33780F6A
:100B9B0074117E700A1211E7E47AB30012800874A4
:100BAB00117E70021211E7DAF822CA3B7EB30010F5
:100BBB0070067E3F00228007B402047E3F00297F2F
:100BCB0013120C1A7F017E3436007E24016E120D37
:100BDB00857F010B0D74021E141E0450034E2080E2
:100BEB001478F46D337E2400019F107EA300104C0B
:100BFB00AA780C7CB7F5D50A367CB7F5D4800DBE38
:100C0B00A00278087CB7F5D70A56F5D6DA3B227ADC
:100C1B001F00397E34003C7E2400007E1B307E3466
:100C2B00003D7E2400007A1B307E34003B7E240086
:100C3B00007E1B307E34003E7E2400007A1B307E0B
:100C4B0034003A7E2400007E1B307E34003F7E242D
:100C5B0000007A1B307E3400397E2400007E1B306E
:100C6B007E3400407E2400007A1B307E1F003D2224
:100C7B007EB30009BEB00D50507EA003A4900C8C27
:100C8B0073020CB3020CB6020CD4020CB9020CD4D6
:100C9B00020CBC020CBF020CC2020CC5020CC80237
:100CAB000CCB020CCE020CD10202AA02057A020670
:100CBB002C020DD60206D8020003020D2F0203BC34
:100CCB00020FB10210FB020006021219740E6C77B0
:100CDB001211E774111211BE30E04874207E0F0020
:100CEB001512008E0A1B7E2700139D217A270013F5
:100CFB007E1F00152D317A1F00157E3700134D33E3
:100D0B00780F74117E70481211E7E47AB3001280E9
:100D1B000874117E70401211E77EB30009B42003F2
:100D2B00020E69227EB30008B480227EB3000B70E2
:100D3B001C7EB3000A70167EB3000D70107EB300DC
:100D4B000C700A7E37000EBE3400016803021219C4
:100D5B007EB30011B4040A7E3405707E2400FF803C
:100D6B00087E34056E7E2400FF7A1F00157E34004A
:100D7B00017A3700130211FA6D0074104D00780BD5
:100D8B004D2278278D317D126D22227D437D326D70
:100D9B00222F112D445002A50FBF1040049F100BA2
:100DAB00901478ED7F016D227D34227D417D138D72
:100DBB00247D022F004004BD0440049D040B141439
:100DCB0078F17D237D317D106D0022CAF87EB30052
:100DDB000870237EB3000D701D7EB3000C70177E60
:100DEB00B3000B70117EF3000ABEF08050087E3703
:100DFB00000E4D3368051212198017E47C7F121117
:100E0B00E74CFF68047403800274027AB30011127A
:100E1B001227DAF8227EA300104CAA781E7EB300AC
:100E2B002714680F14680C14680914680A8000757D
:100E3B00AC502275ACD82275ACD022BEA002781D66
:100E4B007EB3002E14680F14680C14680914680A1A
:100E5B008000759A5022759AD822759AD0227EA35B
:100E6B0000104CAA7824E47AB3002674087AB300F5
:100E7B00286D117E0460097E1F0022BF10781B7E37
:100E8B00B30027B40214D2058010BEA002780BE485
:100E9B007AB3002D74087AB3002F120E20020BB513
:100EAB00CA59CA39C0D1C083C082A9319A05A9C118
:100EBB009AC206A9309A20A9C09A7EA19B7E730084
:100ECB00377CB7047AB300370A372E3402007A71B5
:100EDB00827A61837AEBA0D082D083D0D1DA39DAEF
:100EEB005932CA59CA39C0D1C083C082A931AC05A5
:100EFB00A9C1ACC207A930AC20A9C0AC7EA1AD7E04
:100F0B007300387CB7047AB300380A372E340300E9
:100F1B007A71827A61837AEBA0D082D083D0D1DAD6
:100F2B0039DA59327EB30011B404097EB30008BE1E
:100F3B00B0A1680280217EB3000C7AB3001070065A
:100F4B007E180022800B7EB30010B4020A7E1800BC
:100F5B00297A1F001580030212197E37000E7A378B
:100F6B0000130211FA7EB30011B404097EB300081A
:100F7B00BEB021680280217EB3000C7AB3001070E2
:100F8B00067E180022800B7EB30010B4020A7E1876
:100F9B0000297A1F001580030212197E37000E7A82
:100FAB0037001302120B7EB30011B4041D7EB30085
:100FBB0008B481167EB3000B70107EB3000D700A5F
:100FCB007E37000EBE34000168030212197E340511
:100FDB006E7E2400FF7A1F00157E3400017A3700E5
:100FEB00130211FA20B21D2004297EB3001D047ACE
:100FFB00B3001D7E73001DBE70054017D204D2C016
:10100B0043C90322E47AB3001D300407C2C053C99D
:10101B00FCC20422CAF8740E7E70041211E774111C
:10102B001211BE7CFB30E50874117E70401211E783
:10103B007CBF30E20774116C771211E7C200DAF84B
:10104B0022CAF8740E7E70051211E774111211BECC
:10105B007CFB30E50874117E70401211E77CBF30C9
:10106B00E20774116C771211E7C201DAF822CA3B5E
:10107B007A73003A7F307AB30039800C7EB3003933
:10108B007E3B700B741211E77EA3003A7CBA147A84
:10109B00B3003A4CAA78E5DA3B22CAF8740E7E709C
:1010AB00021211E774111211BE7CFB30E5087411AA
:1010BB007E70401211E77CBF30E20774116C77121F
:1010CB0011E7DAF822CAF8740E7E70031211E77476
:1010DB00111211BE7CFB30E50874117E70401211A9
:1010EB00E77CBF30E20774116C771211E7DAF82254
:1010FB007EB30011B4041B7EB30008B401147EB39D
:10110B00000B700E7EB3000D70087E37000E4D3352
:10111B0068030212190212271200461211D3120889
:10112B009D1209971211A9D2AF1200CE3008FAC244
:10113B0008120FEF120AE780F0CAB8C0D1D2097EAD
:10114B00B3001F147AB3001F7808740A7AB3001F18
:10115B00D208D0D1DAB8327EB3000924DF680A1482
:10116B00680A0BB17809020F70020F2F02117D0272
:10117B0012197EB30011B404097EB30008BEB0216E
:10118B0068030212190212277584017E44041FE4BE
:10119B007A49B01B4478F97EF80040021123C2054E
:1011AB00E47AB3001B7AB3001E7AB3001CC2C0539F
:1011BB00C9FC227CABE5FC20E7FB7CBA4480F5FC48
:1011CB00E5FC20E7FBE5EC225389F0758A30758C42
:1011DB00F8D28CD2A9740A7AB3001F227CA77C7B2D
:1011EB00E5FC20E7FB7CB7547FF5FC7AA1EC22747D
:1011FB00037AB3001274117E70401211E7020B4E8A
:10120B0074047AB3001274117E70400211E77405F6
:10121B007AB3001274117E70600211E7E47AB300A6
:09122B001274117E70480211E7F3
:00000001FF
